{
  "_format": "hh-sol-artifact-1",
  "contractName": "ShapeGame",
  "sourceName": "contracts/ShapeGame.sol",
  "abi": [
    {
      "inputs": [
        {
          "internalType": "string",
          "name": "_name",
          "type": "string"
        },
        {
          "internalType": "uint256",
          "name": "_price",
          "type": "uint256"
        },
        {
          "internalType": "string",
          "name": "_thumbnail",
          "type": "string"
        },
        {
          "internalType": "string[]",
          "name": "_tasks",
          "type": "string[]"
        }
      ],
      "stateMutability": "nonpayable",
      "type": "constructor"
    },
    {
      "inputs": [
        {
          "internalType": "address",
          "name": "owner",
          "type": "address"
        }
      ],
      "name": "OwnableInvalidOwner",
      "type": "error"
    },
    {
      "inputs": [
        {
          "internalType": "address",
          "name": "account",
          "type": "address"
        }
      ],
      "name": "OwnableUnauthorizedAccount",
      "type": "error"
    },
    {
      "anonymous": false,
      "inputs": [
        {
          "indexed": true,
          "internalType": "address",
          "name": "player",
          "type": "address"
        },
        {
          "indexed": false,
          "internalType": "address",
          "name": "playerContract",
          "type": "address"
        }
      ],
      "name": "DchainGamePurchased",
      "type": "event"
    },
    {
      "anonymous": false,
      "inputs": [
        {
          "indexed": true,
          "internalType": "address",
          "name": "previousOwner",
          "type": "address"
        },
        {
          "indexed": true,
          "internalType": "address",
          "name": "newOwner",
          "type": "address"
        }
      ],
      "name": "OwnershipTransferred",
      "type": "event"
    },
    {
      "inputs": [],
      "name": "buyGame",
      "outputs": [],
      "stateMutability": "payable",
      "type": "function"
    },
    {
      "inputs": [],
      "name": "getAllPlayers",
      "outputs": [
        {
          "internalType": "address[]",
          "name": "",
          "type": "address[]"
        }
      ],
      "stateMutability": "view",
      "type": "function"
    },
    {
      "inputs": [],
      "name": "getPlayerContract",
      "outputs": [
        {
          "internalType": "address",
          "name": "",
          "type": "address"
        }
      ],
      "stateMutability": "view",
      "type": "function"
    },
    {
      "inputs": [
        {
          "internalType": "address",
          "name": "player",
          "type": "address"
        }
      ],
      "name": "hasPurchasedGame",
      "outputs": [
        {
          "internalType": "bool",
          "name": "",
          "type": "bool"
        }
      ],
      "stateMutability": "view",
      "type": "function"
    },
    {
      "inputs": [],
      "name": "name",
      "outputs": [
        {
          "internalType": "string",
          "name": "",
          "type": "string"
        }
      ],
      "stateMutability": "view",
      "type": "function"
    },
    {
      "inputs": [],
      "name": "owner",
      "outputs": [
        {
          "internalType": "address",
          "name": "",
          "type": "address"
        }
      ],
      "stateMutability": "view",
      "type": "function"
    },
    {
      "inputs": [],
      "name": "price",
      "outputs": [
        {
          "internalType": "uint256",
          "name": "",
          "type": "uint256"
        }
      ],
      "stateMutability": "view",
      "type": "function"
    },
    {
      "inputs": [],
      "name": "renounceOwnership",
      "outputs": [],
      "stateMutability": "nonpayable",
      "type": "function"
    },
    {
      "inputs": [],
      "name": "thumbnail",
      "outputs": [
        {
          "internalType": "string",
          "name": "",
          "type": "string"
        }
      ],
      "stateMutability": "view",
      "type": "function"
    },
    {
      "inputs": [
        {
          "internalType": "address",
          "name": "newOwner",
          "type": "address"
        }
      ],
      "name": "transferOwnership",
      "outputs": [],
      "stateMutability": "nonpayable",
      "type": "function"
    }
  ],
  "bytecode": "0x60806040523480156200001157600080fd5b50604051620030f5380380620030f5833981810160405281019062000037919062000588565b33600073ffffffffffffffffffffffffffffffffffffffff168173ffffffffffffffffffffffffffffffffffffffff1603620000ad5760006040517f1e4fbdf7000000000000000000000000000000000000000000000000000000008152600401620000a491906200069c565b60405180910390fd5b620000be816200010d60201b60201c565b508360019081620000d09190620008fa565b50826003819055508160029081620000e99190620008fa565b50806004908051906020019062000102929190620001d1565b5050505050620009e1565b60008060009054906101000a900473ffffffffffffffffffffffffffffffffffffffff169050816000806101000a81548173ffffffffffffffffffffffffffffffffffffffff021916908373ffffffffffffffffffffffffffffffffffffffff1602179055508173ffffffffffffffffffffffffffffffffffffffff168173ffffffffffffffffffffffffffffffffffffffff167f8be0079c531659141344cd1fd0a4f28419497f9722a3daafe3b4186f6b6457e060405160405180910390a35050565b8280548282559060005260206000209081019282156200021e579160200282015b828111156200021d5782518290816200020c9190620008fa565b5091602001919060010190620001f2565b5b5090506200022d919062000231565b5090565b5b808211156200025557600081816200024b919062000259565b5060010162000232565b5090565b5080546200026790620006f3565b6000825580601f106200027b57506200029c565b601f0160209004906000526020600020908101906200029b91906200029f565b5b50565b5b80821115620002ba576000816000905550600101620002a0565b5090565b6000604051905090565b600080fd5b600080fd5b600080fd5b600080fd5b6000601f19601f8301169050919050565b7f4e487b7100000000000000000000000000000000000000000000000000000000600052604160045260246000fd5b6200032782620002dc565b810181811067ffffffffffffffff82111715620003495762000348620002ed565b5b80604052505050565b60006200035e620002be565b90506200036c82826200031c565b919050565b600067ffffffffffffffff8211156200038f576200038e620002ed565b5b6200039a82620002dc565b9050602081019050919050565b60005b83811015620003c7578082015181840152602081019050620003aa565b60008484015250505050565b6000620003ea620003e48462000371565b62000352565b905082815260208101848484011115620004095762000408620002d7565b5b62000416848285620003a7565b509392505050565b600082601f830112620004365762000435620002d2565b5b815162000448848260208601620003d3565b91505092915050565b6000819050919050565b620004668162000451565b81146200047257600080fd5b50565b60008151905062000486816200045b565b92915050565b600067ffffffffffffffff821115620004aa57620004a9620002ed565b5b602082029050602081019050919050565b600080fd5b6000620004d7620004d1846200048c565b62000352565b90508083825260208201905060208402830185811115620004fd57620004fc620004bb565b5b835b818110156200054b57805167ffffffffffffffff811115620005265762000525620002d2565b5b8086016200053589826200041e565b85526020850194505050602081019050620004ff565b5050509392505050565b600082601f8301126200056d576200056c620002d2565b5b81516200057f848260208601620004c0565b91505092915050565b60008060008060808587031215620005a557620005a4620002c8565b5b600085015167ffffffffffffffff811115620005c657620005c5620002cd565b5b620005d4878288016200041e565b9450506020620005e78782880162000475565b935050604085015167ffffffffffffffff8111156200060b576200060a620002cd565b5b62000619878288016200041e565b925050606085015167ffffffffffffffff8111156200063d576200063c620002cd565b5b6200064b8782880162000555565b91505092959194509250565b600073ffffffffffffffffffffffffffffffffffffffff82169050919050565b6000620006848262000657565b9050919050565b620006968162000677565b82525050565b6000602082019050620006b360008301846200068b565b92915050565b600081519050919050565b7f4e487b7100000000000000000000000000000000000000000000000000000000600052602260045260246000fd5b600060028204905060018216806200070c57607f821691505b602082108103620007225762000721620006c4565b5b50919050565b60008190508160005260206000209050919050565b60006020601f8301049050919050565b600082821b905092915050565b6000600883026200078c7fffffffffffffffffffffffffffffffffffffffffffffffffffffffffffffffff826200074d565b6200079886836200074d565b95508019841693508086168417925050509392505050565b6000819050919050565b6000620007db620007d5620007cf8462000451565b620007b0565b62000451565b9050919050565b6000819050919050565b620007f783620007ba565b6200080f6200080682620007e2565b8484546200075a565b825550505050565b600090565b6200082662000817565b62000833818484620007ec565b505050565b5b818110156200085b576200084f6000826200081c565b60018101905062000839565b5050565b601f821115620008aa57620008748162000728565b6200087f846200073d565b810160208510156200088f578190505b620008a76200089e856200073d565b83018262000838565b50505b505050565b600082821c905092915050565b6000620008cf60001984600802620008af565b1980831691505092915050565b6000620008ea8383620008bc565b9150826002028217905092915050565b6200090582620006b9565b67ffffffffffffffff811115620009215762000920620002ed565b5b6200092d8254620006f3565b6200093a8282856200085f565b600060209050601f8311600181146200097257600084156200095d578287015190505b620009698582620008dc565b865550620009d9565b601f198416620009828662000728565b60005b82811015620009ac5784890151825560018201915060208501945060208101905062000985565b86831015620009cc5784890151620009c8601f891682620008bc565b8355505b6001600288020188555050505b505050505050565b61270480620009f16000396000f3fe6080604052600436106200009e5760003560e01c8063715018a61162000061578063715018a614620001835780638da5cb5b146200019d578063a035b1fe14620001cd578063efa1c48214620001fd578063f2fde38b146200022d576200009e565b806306fdde0314620000a3578063072c6cda14620000d357806349cd2abf1462000103578063517c7111146200010f5780635afc2ab41462000153575b600080fd5b348015620000b057600080fd5b50620000bb6200025b565b604051620000ca919062000aca565b60405180910390f35b348015620000e057600080fd5b50620000eb620002f1565b604051620000fa919062000b33565b60405180910390f35b6200010d62000358565b005b3480156200011c57600080fd5b506200013b600480360381019062000135919062000b86565b62000634565b6040516200014a919062000bd5565b60405180910390f35b3480156200016057600080fd5b506200016b620006cc565b6040516200017a919062000aca565b60405180910390f35b3480156200019057600080fd5b506200019b62000762565b005b348015620001aa57600080fd5b50620001b56200077a565b604051620001c4919062000b33565b60405180910390f35b348015620001da57600080fd5b50620001e5620007a3565b604051620001f4919062000c0d565b60405180910390f35b3480156200020a57600080fd5b5062000215620007a9565b60405162000224919062000cf8565b60405180910390f35b3480156200023a57600080fd5b5062000259600480360381019062000253919062000b86565b62000839565b005b600180546200026a9062000d4b565b80601f0160208091040260200160405190810160405280929190818152602001828054620002989062000d4b565b8015620002e95780601f10620002bd57610100808354040283529160200191620002e9565b820191906000526020600020905b815481529060010190602001808311620002cb57829003601f168201915b505050505081565b6000600560003373ffffffffffffffffffffffffffffffffffffffff1673ffffffffffffffffffffffffffffffffffffffff16815260200190815260200160002060009054906101000a900473ffffffffffffffffffffffffffffffffffffffff16905090565b600073ffffffffffffffffffffffffffffffffffffffff16600560003373ffffffffffffffffffffffffffffffffffffffff1673ffffffffffffffffffffffffffffffffffffffff16815260200190815260200160002060009054906101000a900473ffffffffffffffffffffffffffffffffffffffff1673ffffffffffffffffffffffffffffffffffffffff161462000429576040517f08c379a0000000000000000000000000000000000000000000000000000000008152600401620004209062000dd0565b60405180910390fd5b60035434101562000471576040517f08c379a0000000000000000000000000000000000000000000000000000000008152600401620004689062000e42565b60405180910390fd5b6200047b6200077a565b73ffffffffffffffffffffffffffffffffffffffff166108fc349081150290604051600060405180830381858888f19350505050158015620004c1573d6000803e3d6000fd5b5060006004604051620004d49062000a22565b620004e0919062000fee565b604051809103906000f080158015620004fd573d6000803e3d6000fd5b50905080600560003373ffffffffffffffffffffffffffffffffffffffff1673ffffffffffffffffffffffffffffffffffffffff16815260200190815260200160002060006101000a81548173ffffffffffffffffffffffffffffffffffffffff021916908373ffffffffffffffffffffffffffffffffffffffff1602179055506006339080600181540180825580915050600190039060005260206000200160009091909190916101000a81548173ffffffffffffffffffffffffffffffffffffffff021916908373ffffffffffffffffffffffffffffffffffffffff1602179055503373ffffffffffffffffffffffffffffffffffffffff167fdf37cd8209bf25f467e6073669b0d429139ac595d9a79445e904b48fe88709f48260405162000629919062000b33565b60405180910390a250565b60008073ffffffffffffffffffffffffffffffffffffffff16600560008473ffffffffffffffffffffffffffffffffffffffff1673ffffffffffffffffffffffffffffffffffffffff16815260200190815260200160002060009054906101000a900473ffffffffffffffffffffffffffffffffffffffff1673ffffffffffffffffffffffffffffffffffffffff1614159050919050565b60028054620006db9062000d4b565b80601f0160208091040260200160405190810160405280929190818152602001828054620007099062000d4b565b80156200075a5780601f106200072e576101008083540402835291602001916200075a565b820191906000526020600020905b8154815290600101906020018083116200073c57829003601f168201915b505050505081565b6200076c620008c6565b62000778600062000956565b565b60008060009054906101000a900473ffffffffffffffffffffffffffffffffffffffff16905090565b60035481565b606060068054806020026020016040519081016040528092919081815260200182805480156200082f57602002820191906000526020600020905b8160009054906101000a900473ffffffffffffffffffffffffffffffffffffffff1673ffffffffffffffffffffffffffffffffffffffff1681526020019060010190808311620007e4575b5050505050905090565b62000843620008c6565b600073ffffffffffffffffffffffffffffffffffffffff168173ffffffffffffffffffffffffffffffffffffffff1603620008b85760006040517f1e4fbdf7000000000000000000000000000000000000000000000000000000008152600401620008af919062000b33565b60405180910390fd5b620008c38162000956565b50565b620008d062000a1a565b73ffffffffffffffffffffffffffffffffffffffff16620008f06200077a565b73ffffffffffffffffffffffffffffffffffffffff161462000954576200091662000a1a565b6040517f118cdaa70000000000000000000000000000000000000000000000000000000081526004016200094b919062000b33565b60405180910390fd5b565b60008060009054906101000a900473ffffffffffffffffffffffffffffffffffffffff169050816000806101000a81548173ffffffffffffffffffffffffffffffffffffffff021916908373ffffffffffffffffffffffffffffffffffffffff1602179055508173ffffffffffffffffffffffffffffffffffffffff168173ffffffffffffffffffffffffffffffffffffffff167f8be0079c531659141344cd1fd0a4f28419497f9722a3daafe3b4186f6b6457e060405160405180910390a35050565b600033905090565b6116bc806200101383390190565b600081519050919050565b600082825260208201905092915050565b60005b8381101562000a6c57808201518184015260208101905062000a4f565b60008484015250505050565b6000601f19601f8301169050919050565b600062000a968262000a30565b62000aa2818562000a3b565b935062000ab481856020860162000a4c565b62000abf8162000a78565b840191505092915050565b6000602082019050818103600083015262000ae6818462000a89565b905092915050565b600073ffffffffffffffffffffffffffffffffffffffff82169050919050565b600062000b1b8262000aee565b9050919050565b62000b2d8162000b0e565b82525050565b600060208201905062000b4a600083018462000b22565b92915050565b600080fd5b62000b608162000b0e565b811462000b6c57600080fd5b50565b60008135905062000b808162000b55565b92915050565b60006020828403121562000b9f5762000b9e62000b50565b5b600062000baf8482850162000b6f565b91505092915050565b60008115159050919050565b62000bcf8162000bb8565b82525050565b600060208201905062000bec600083018462000bc4565b92915050565b6000819050919050565b62000c078162000bf2565b82525050565b600060208201905062000c24600083018462000bfc565b92915050565b600081519050919050565b600082825260208201905092915050565b6000819050602082019050919050565b62000c618162000b0e565b82525050565b600062000c75838362000c56565b60208301905092915050565b6000602082019050919050565b600062000c9b8262000c2a565b62000ca7818562000c35565b935062000cb48362000c46565b8060005b8381101562000ceb57815162000ccf888262000c67565b975062000cdc8362000c81565b92505060018101905062000cb8565b5085935050505092915050565b6000602082019050818103600083015262000d14818462000c8e565b905092915050565b7f4e487b7100000000000000000000000000000000000000000000000000000000600052602260045260246000fd5b6000600282049050600182168062000d6457607f821691505b60208210810362000d7a5762000d7962000d1c565b5b50919050565b7f596f75206861766520616c726561647920626f75676874207468652067616d65600082015250565b600062000db860208362000a3b565b915062000dc58262000d80565b602082019050919050565b6000602082019050818103600083015262000deb8162000da9565b9050919050565b7f496e73756666696369656e742066756e64730000000000000000000000000000600082015250565b600062000e2a60128362000a3b565b915062000e378262000df2565b602082019050919050565b6000602082019050818103600083015262000e5d8162000e1b565b9050919050565b600081549050919050565b600082825260208201905092915050565b60008190508160005260206000209050919050565b600082825260208201905092915050565b60008190508160005260206000209050919050565b6000815462000eca8162000d4b565b62000ed6818662000e95565b9450600182166000811462000ef4576001811462000f0b5762000f42565b60ff19831686528115156020028601935062000f42565b62000f168562000ea6565b60005b8381101562000f3a5781548189015260018201915060208101905062000f19565b808801955050505b50505092915050565b600062000f59838362000ebb565b905092915050565b6000600182019050919050565b600062000f7b8262000e64565b62000f87818562000e6f565b93508360208202850162000f9b8562000e80565b8060005b8581101562000fdc5784840389528162000fba858262000f4b565b945062000fc78362000f61565b925060208a0199505060018101905062000f9f565b50829750879550505050505092915050565b600060208201905081810360008301526200100a818462000f6e565b90509291505056fe60806040523480156200001157600080fd5b50604051620016bc380380620016bc83398181016040528101906200003791906200039a565b60005b815181101562000103576000808383815181106200005d576200005c620003eb565b5b602002602001015160405162000074919062000467565b908152602001604051809103902060006101000a81548160ff0219169083151502179055506001828281518110620000b157620000b0620003eb565b5b6020026020010151908060018154018082558091505060019003906000526020600020016000909190919091509081620000ec9190620006c0565b508080620000fa90620007d6565b9150506200003a565b505062000823565b6000604051905090565b600080fd5b600080fd5b600080fd5b6000601f19601f8301169050919050565b7f4e487b7100000000000000000000000000000000000000000000000000000000600052604160045260246000fd5b6200016f8262000124565b810181811067ffffffffffffffff8211171562000191576200019062000135565b5b80604052505050565b6000620001a66200010b565b9050620001b4828262000164565b919050565b600067ffffffffffffffff821115620001d757620001d662000135565b5b602082029050602081019050919050565b600080fd5b600080fd5b600067ffffffffffffffff82111562000210576200020f62000135565b5b6200021b8262000124565b9050602081019050919050565b60005b83811015620002485780820151818401526020810190506200022b565b60008484015250505050565b60006200026b6200026584620001f2565b6200019a565b9050828152602081018484840111156200028a5762000289620001ed565b5b6200029784828562000228565b509392505050565b600082601f830112620002b757620002b66200011f565b5b8151620002c984826020860162000254565b91505092915050565b6000620002e9620002e384620001b9565b6200019a565b905080838252602082019050602084028301858111156200030f576200030e620001e8565b5b835b818110156200035d57805167ffffffffffffffff8111156200033857620003376200011f565b5b8086016200034789826200029f565b8552602085019450505060208101905062000311565b5050509392505050565b600082601f8301126200037f576200037e6200011f565b5b815162000391848260208601620002d2565b91505092915050565b600060208284031215620003b357620003b262000115565b5b600082015167ffffffffffffffff811115620003d457620003d36200011a565b5b620003e28482850162000367565b91505092915050565b7f4e487b7100000000000000000000000000000000000000000000000000000000600052603260045260246000fd5b600081519050919050565b600081905092915050565b60006200043d826200041a565b62000449818562000425565b93506200045b81856020860162000228565b80840191505092915050565b600062000475828462000430565b915081905092915050565b7f4e487b7100000000000000000000000000000000000000000000000000000000600052602260045260246000fd5b60006002820490506001821680620004c857607f821691505b602082108103620004de57620004dd62000480565b5b50919050565b60008190508160005260206000209050919050565b60006020601f8301049050919050565b600082821b905092915050565b600060088302620005487fffffffffffffffffffffffffffffffffffffffffffffffffffffffffffffffff8262000509565b62000554868362000509565b95508019841693508086168417925050509392505050565b6000819050919050565b6000819050919050565b6000620005a16200059b62000595846200056c565b62000576565b6200056c565b9050919050565b6000819050919050565b620005bd8362000580565b620005d5620005cc82620005a8565b84845462000516565b825550505050565b600090565b620005ec620005dd565b620005f9818484620005b2565b505050565b5b81811015620006215762000615600082620005e2565b600181019050620005ff565b5050565b601f82111562000670576200063a81620004e4565b6200064584620004f9565b8101602085101562000655578190505b6200066d6200066485620004f9565b830182620005fe565b50505b505050565b600082821c905092915050565b6000620006956000198460080262000675565b1980831691505092915050565b6000620006b0838362000682565b9150826002028217905092915050565b620006cb826200041a565b67ffffffffffffffff811115620006e757620006e662000135565b5b620006f38254620004af565b6200070082828562000625565b600060209050601f83116001811462000738576000841562000723578287015190505b6200072f8582620006a2565b8655506200079f565b601f1984166200074886620004e4565b60005b8281101562000772578489015182556001820191506020850194506020810190506200074b565b868310156200079257848901516200078e601f89168262000682565b8355505b6001600288020188555050505b505050505050565b7f4e487b7100000000000000000000000000000000000000000000000000000000600052601160045260246000fd5b6000620007e3826200056c565b91507fffffffffffffffffffffffffffffffffffffffffffffffffffffffffffffffff8203620008185762000817620007a7565b5b600182019050919050565b610e8980620008336000396000f3fe608060405234801561001057600080fd5b506004361061007d5760003560e01c80635ee66e881161005b5780635ee66e8814610100578063722fed7e1461013057806396740de31461014e578063d826f88f1461016d5761007d565b806304a87e38146100825780633251c049146100a0578063394c244b146100d0575b600080fd5b61008a610177565b604051610097919061088a565b60405180910390f35b6100ba60048036038101906100b591906109f5565b610250565b6040516100c79190610a59565b60405180910390f35b6100ea60048036038101906100e591906109f5565b6102fd565b6040516100f79190610a59565b60405180910390f35b61011a600480360381019061011591906109f5565b6103c6565b6040516101279190610a59565b60405180910390f35b610138610445565b6040516101459190610a59565b60405180910390f35b6101566104cd565b604051610164929190610b32565b60405180910390f35b610175610693565b005b60606001805480602002602001604051908101604052809291908181526020016000905b828210156102475783829060005260206000200180546101ba90610b98565b80601f01602080910402602001604051908101604052809291908181526020018280546101e690610b98565b80156102335780601f1061020857610100808354040283529160200191610233565b820191906000526020600020905b81548152906001019060200180831161021657829003601f168201915b50505050508152602001906001019061019b565b50505050905090565b600080600090505b6001805490508110156102f257826040516020016102769190610c05565b60405160208183030381529060405280519060200120600182815481106102a05761029f610c1c565b5b906000526020600020016040516020016102ba9190610ce3565b60405160208183030381529060405280519060200120036102df5760019150506102f8565b80806102ea90610d33565b915050610258565b50600090505b919050565b60008161030981610250565b610348576040517f08c379a000000000000000000000000000000000000000000000000000000000815260040161033f90610dd8565b60405180910390fd5b600160008460405161035a9190610c05565b908152602001604051809103902060006101000a81548160ff0219169083151502179055507f2ea2764b7d80d0107c1d2c0210ead4a6fdee0f86235483a041d9faffbf875880836040516103ae9190610e31565b60405180910390a16103be610445565b915050919050565b6000816103d281610250565b610411576040517f08c379a000000000000000000000000000000000000000000000000000000000815260040161040890610dd8565b60405180910390fd5b6000836040516104219190610c05565b908152602001604051809103902060009054906101000a900460ff16915050919050565b600080600090505b6001805490508110156104c4576000600182815481106104705761046f610c1c565b5b906000526020600020016040516104879190610ce3565b908152602001604051809103902060009054906101000a900460ff166104b15760009150506104ca565b80806104bc90610d33565b91505061044d565b50600190505b90565b606080600060018054905067ffffffffffffffff8111156104f1576104f06108ca565b5b60405190808252806020026020018201604052801561051f5781602001602082028036833780820191505090505b50905060005b6001805490508110156105b35760006001828154811061054857610547610c1c565b5b9060005260206000200160405161055f9190610ce3565b908152602001604051809103902060009054906101000a900460ff1682828151811061058e5761058d610c1c565b5b60200260200101901515908115158152505080806105ab90610d33565b915050610525565b5060018181805480602002602001604051908101604052809291908181526020016000905b828210156106845783829060005260206000200180546105f790610b98565b80601f016020809104026020016040519081016040528092919081815260200182805461062390610b98565b80156106705780601f1061064557610100808354040283529160200191610670565b820191906000526020600020905b81548152906001019060200180831161065357829003601f168201915b5050505050815260200190600101906105d8565b50505050915092509250509091565b60005b60018054905081101561070957600080600183815481106106ba576106b9610c1c565b5b906000526020600020016040516106d19190610ce3565b908152602001604051809103902060006101000a81548160ff021916908315150217905550808061070190610d33565b915050610696565b507f3ce3faa7c721ad3fdd768c232390587b2a5855c74a1a1c5601a62f5103d4584460405160405180910390a1565b600081519050919050565b600082825260208201905092915050565b6000819050602082019050919050565b600081519050919050565b600082825260208201905092915050565b60005b8381101561079e578082015181840152602081019050610783565b60008484015250505050565b6000601f19601f8301169050919050565b60006107c682610764565b6107d0818561076f565b93506107e0818560208601610780565b6107e9816107aa565b840191505092915050565b600061080083836107bb565b905092915050565b6000602082019050919050565b600061082082610738565b61082a8185610743565b93508360208202850161083c85610754565b8060005b85811015610878578484038952815161085985826107f4565b945061086483610808565b925060208a01995050600181019050610840565b50829750879550505050505092915050565b600060208201905081810360008301526108a48184610815565b905092915050565b6000604051905090565b600080fd5b600080fd5b600080fd5b600080fd5b7f4e487b7100000000000000000000000000000000000000000000000000000000600052604160045260246000fd5b610902826107aa565b810181811067ffffffffffffffff82111715610921576109206108ca565b5b80604052505050565b60006109346108ac565b905061094082826108f9565b919050565b600067ffffffffffffffff8211156109605761095f6108ca565b5b610969826107aa565b9050602081019050919050565b82818337600083830152505050565b600061099861099384610945565b61092a565b9050828152602081018484840111156109b4576109b36108c5565b5b6109bf848285610976565b509392505050565b600082601f8301126109dc576109db6108c0565b5b81356109ec848260208601610985565b91505092915050565b600060208284031215610a0b57610a0a6108b6565b5b600082013567ffffffffffffffff811115610a2957610a286108bb565b5b610a35848285016109c7565b91505092915050565b60008115159050919050565b610a5381610a3e565b82525050565b6000602082019050610a6e6000830184610a4a565b92915050565b600081519050919050565b600082825260208201905092915050565b6000819050602082019050919050565b610aa981610a3e565b82525050565b6000610abb8383610aa0565b60208301905092915050565b6000602082019050919050565b6000610adf82610a74565b610ae98185610a7f565b9350610af483610a90565b8060005b83811015610b25578151610b0c8882610aaf565b9750610b1783610ac7565b925050600181019050610af8565b5085935050505092915050565b60006040820190508181036000830152610b4c8185610815565b90508181036020830152610b608184610ad4565b90509392505050565b7f4e487b7100000000000000000000000000000000000000000000000000000000600052602260045260246000fd5b60006002820490506001821680610bb057607f821691505b602082108103610bc357610bc2610b69565b5b50919050565b600081905092915050565b6000610bdf82610764565b610be98185610bc9565b9350610bf9818560208601610780565b80840191505092915050565b6000610c118284610bd4565b915081905092915050565b7f4e487b7100000000000000000000000000000000000000000000000000000000600052603260045260246000fd5b60008190508160005260206000209050919050565b60008154610c6d81610b98565b610c778186610bc9565b94506001821660008114610c925760018114610ca757610cda565b60ff1983168652811515820286019350610cda565b610cb085610c4b565b60005b83811015610cd257815481890152600182019150602081019050610cb3565b838801955050505b50505092915050565b6000610cef8284610c60565b915081905092915050565b7f4e487b7100000000000000000000000000000000000000000000000000000000600052601160045260246000fd5b6000819050919050565b6000610d3e82610d29565b91507fffffffffffffffffffffffffffffffffffffffffffffffffffffffffffffffff8203610d7057610d6f610cfa565b5b600182019050919050565b600082825260208201905092915050565b7f5461736b20646f6573206e6f7420657869737400000000000000000000000000600082015250565b6000610dc2601383610d7b565b9150610dcd82610d8c565b602082019050919050565b60006020820190508181036000830152610df181610db5565b9050919050565b6000610e0382610764565b610e0d8185610d7b565b9350610e1d818560208601610780565b610e26816107aa565b840191505092915050565b60006020820190508181036000830152610e4b8184610df8565b90509291505056fea26469706673582212201b1de5658a905dad2bc6ebd57c80c9b90271eca1e43a7672a8ae499016bcf1e064736f6c63430008140033a2646970667358221220671041bce6be364584d74ae5d1e908dda0d693cc3d6bb436d22c86bd94fd59b364736f6c63430008140033",
  "linkReferences": {},
  "deployedLinkReferences": {}
}