{
  "_format": "hh-sol-artifact-1",
  "contractName": "ShapeGamePlayerStatus",
  "sourceName": "contracts/ShapeGamePlayerStatus.sol",
  "abi": [
    {
      "inputs": [
        {
          "internalType": "string[]",
          "name": "_tasks",
          "type": "string[]"
        }
      ],
      "stateMutability": "nonpayable",
      "type": "constructor"
    },
    {
      "anonymous": false,
      "inputs": [
        {
          "indexed": false,
          "internalType": "string",
          "name": "task",
          "type": "string"
        }
      ],
      "name": "TaskCompleted",
      "type": "event"
    },
    {
      "anonymous": false,
      "inputs": [],
      "name": "TasksReset",
      "type": "event"
    },
    {
      "inputs": [
        {
          "internalType": "string",
          "name": "_task",
          "type": "string"
        }
      ],
      "name": "checkTaskExists",
      "outputs": [
        {
          "internalType": "bool",
          "name": "",
          "type": "bool"
        }
      ],
      "stateMutability": "view",
      "type": "function"
    },
    {
      "inputs": [
        {
          "internalType": "string",
          "name": "_task",
          "type": "string"
        }
      ],
      "name": "completeTask",
      "outputs": [
        {
          "internalType": "bool",
          "name": "",
          "type": "bool"
        }
      ],
      "stateMutability": "nonpayable",
      "type": "function"
    },
    {
      "inputs": [],
      "name": "gameStatus",
      "outputs": [
        {
          "internalType": "bool",
          "name": "",
          "type": "bool"
        }
      ],
      "stateMutability": "view",
      "type": "function"
    },
    {
      "inputs": [],
      "name": "getTaskStatus",
      "outputs": [
        {
          "internalType": "string[]",
          "name": "",
          "type": "string[]"
        },
        {
          "internalType": "bool[]",
          "name": "",
          "type": "bool[]"
        }
      ],
      "stateMutability": "view",
      "type": "function"
    },
    {
      "inputs": [],
      "name": "getTasks",
      "outputs": [
        {
          "internalType": "string[]",
          "name": "",
          "type": "string[]"
        }
      ],
      "stateMutability": "view",
      "type": "function"
    },
    {
      "inputs": [
        {
          "internalType": "string",
          "name": "_task",
          "type": "string"
        }
      ],
      "name": "isTaskCompleted",
      "outputs": [
        {
          "internalType": "bool",
          "name": "",
          "type": "bool"
        }
      ],
      "stateMutability": "view",
      "type": "function"
    },
    {
      "inputs": [],
      "name": "reset",
      "outputs": [],
      "stateMutability": "nonpayable",
      "type": "function"
    }
  ],
  "bytecode": "0x60806040523480156200001157600080fd5b50604051620016bc380380620016bc83398181016040528101906200003791906200039a565b60005b815181101562000103576000808383815181106200005d576200005c620003eb565b5b602002602001015160405162000074919062000467565b908152602001604051809103902060006101000a81548160ff0219169083151502179055506001828281518110620000b157620000b0620003eb565b5b6020026020010151908060018154018082558091505060019003906000526020600020016000909190919091509081620000ec9190620006c0565b508080620000fa90620007d6565b9150506200003a565b505062000823565b6000604051905090565b600080fd5b600080fd5b600080fd5b6000601f19601f8301169050919050565b7f4e487b7100000000000000000000000000000000000000000000000000000000600052604160045260246000fd5b6200016f8262000124565b810181811067ffffffffffffffff8211171562000191576200019062000135565b5b80604052505050565b6000620001a66200010b565b9050620001b4828262000164565b919050565b600067ffffffffffffffff821115620001d757620001d662000135565b5b602082029050602081019050919050565b600080fd5b600080fd5b600067ffffffffffffffff82111562000210576200020f62000135565b5b6200021b8262000124565b9050602081019050919050565b60005b83811015620002485780820151818401526020810190506200022b565b60008484015250505050565b60006200026b6200026584620001f2565b6200019a565b9050828152602081018484840111156200028a5762000289620001ed565b5b6200029784828562000228565b509392505050565b600082601f830112620002b757620002b66200011f565b5b8151620002c984826020860162000254565b91505092915050565b6000620002e9620002e384620001b9565b6200019a565b905080838252602082019050602084028301858111156200030f576200030e620001e8565b5b835b818110156200035d57805167ffffffffffffffff8111156200033857620003376200011f565b5b8086016200034789826200029f565b8552602085019450505060208101905062000311565b5050509392505050565b600082601f8301126200037f576200037e6200011f565b5b815162000391848260208601620002d2565b91505092915050565b600060208284031215620003b357620003b262000115565b5b600082015167ffffffffffffffff811115620003d457620003d36200011a565b5b620003e28482850162000367565b91505092915050565b7f4e487b7100000000000000000000000000000000000000000000000000000000600052603260045260246000fd5b600081519050919050565b600081905092915050565b60006200043d826200041a565b62000449818562000425565b93506200045b81856020860162000228565b80840191505092915050565b600062000475828462000430565b915081905092915050565b7f4e487b7100000000000000000000000000000000000000000000000000000000600052602260045260246000fd5b60006002820490506001821680620004c857607f821691505b602082108103620004de57620004dd62000480565b5b50919050565b60008190508160005260206000209050919050565b60006020601f8301049050919050565b600082821b905092915050565b600060088302620005487fffffffffffffffffffffffffffffffffffffffffffffffffffffffffffffffff8262000509565b62000554868362000509565b95508019841693508086168417925050509392505050565b6000819050919050565b6000819050919050565b6000620005a16200059b62000595846200056c565b62000576565b6200056c565b9050919050565b6000819050919050565b620005bd8362000580565b620005d5620005cc82620005a8565b84845462000516565b825550505050565b600090565b620005ec620005dd565b620005f9818484620005b2565b505050565b5b81811015620006215762000615600082620005e2565b600181019050620005ff565b5050565b601f82111562000670576200063a81620004e4565b6200064584620004f9565b8101602085101562000655578190505b6200066d6200066485620004f9565b830182620005fe565b50505b505050565b600082821c905092915050565b6000620006956000198460080262000675565b1980831691505092915050565b6000620006b0838362000682565b9150826002028217905092915050565b620006cb826200041a565b67ffffffffffffffff811115620006e757620006e662000135565b5b620006f38254620004af565b6200070082828562000625565b600060209050601f83116001811462000738576000841562000723578287015190505b6200072f8582620006a2565b8655506200079f565b601f1984166200074886620004e4565b60005b8281101562000772578489015182556001820191506020850194506020810190506200074b565b868310156200079257848901516200078e601f89168262000682565b8355505b6001600288020188555050505b505050505050565b7f4e487b7100000000000000000000000000000000000000000000000000000000600052601160045260246000fd5b6000620007e3826200056c565b91507fffffffffffffffffffffffffffffffffffffffffffffffffffffffffffffffff8203620008185762000817620007a7565b5b600182019050919050565b610e8980620008336000396000f3fe608060405234801561001057600080fd5b506004361061007d5760003560e01c80635ee66e881161005b5780635ee66e8814610100578063722fed7e1461013057806396740de31461014e578063d826f88f1461016d5761007d565b806304a87e38146100825780633251c049146100a0578063394c244b146100d0575b600080fd5b61008a610177565b604051610097919061088a565b60405180910390f35b6100ba60048036038101906100b591906109f5565b610250565b6040516100c79190610a59565b60405180910390f35b6100ea60048036038101906100e591906109f5565b6102fd565b6040516100f79190610a59565b60405180910390f35b61011a600480360381019061011591906109f5565b6103c6565b6040516101279190610a59565b60405180910390f35b610138610445565b6040516101459190610a59565b60405180910390f35b6101566104cd565b604051610164929190610b32565b60405180910390f35b610175610693565b005b60606001805480602002602001604051908101604052809291908181526020016000905b828210156102475783829060005260206000200180546101ba90610b98565b80601f01602080910402602001604051908101604052809291908181526020018280546101e690610b98565b80156102335780601f1061020857610100808354040283529160200191610233565b820191906000526020600020905b81548152906001019060200180831161021657829003601f168201915b50505050508152602001906001019061019b565b50505050905090565b600080600090505b6001805490508110156102f257826040516020016102769190610c05565b60405160208183030381529060405280519060200120600182815481106102a05761029f610c1c565b5b906000526020600020016040516020016102ba9190610ce3565b60405160208183030381529060405280519060200120036102df5760019150506102f8565b80806102ea90610d33565b915050610258565b50600090505b919050565b60008161030981610250565b610348576040517f08c379a000000000000000000000000000000000000000000000000000000000815260040161033f90610dd8565b60405180910390fd5b600160008460405161035a9190610c05565b908152602001604051809103902060006101000a81548160ff0219169083151502179055507f2ea2764b7d80d0107c1d2c0210ead4a6fdee0f86235483a041d9faffbf875880836040516103ae9190610e31565b60405180910390a16103be610445565b915050919050565b6000816103d281610250565b610411576040517f08c379a000000000000000000000000000000000000000000000000000000000815260040161040890610dd8565b60405180910390fd5b6000836040516104219190610c05565b908152602001604051809103902060009054906101000a900460ff16915050919050565b600080600090505b6001805490508110156104c4576000600182815481106104705761046f610c1c565b5b906000526020600020016040516104879190610ce3565b908152602001604051809103902060009054906101000a900460ff166104b15760009150506104ca565b80806104bc90610d33565b91505061044d565b50600190505b90565b606080600060018054905067ffffffffffffffff8111156104f1576104f06108ca565b5b60405190808252806020026020018201604052801561051f5781602001602082028036833780820191505090505b50905060005b6001805490508110156105b35760006001828154811061054857610547610c1c565b5b9060005260206000200160405161055f9190610ce3565b908152602001604051809103902060009054906101000a900460ff1682828151811061058e5761058d610c1c565b5b60200260200101901515908115158152505080806105ab90610d33565b915050610525565b5060018181805480602002602001604051908101604052809291908181526020016000905b828210156106845783829060005260206000200180546105f790610b98565b80601f016020809104026020016040519081016040528092919081815260200182805461062390610b98565b80156106705780601f1061064557610100808354040283529160200191610670565b820191906000526020600020905b81548152906001019060200180831161065357829003601f168201915b5050505050815260200190600101906105d8565b50505050915092509250509091565b60005b60018054905081101561070957600080600183815481106106ba576106b9610c1c565b5b906000526020600020016040516106d19190610ce3565b908152602001604051809103902060006101000a81548160ff021916908315150217905550808061070190610d33565b915050610696565b507f3ce3faa7c721ad3fdd768c232390587b2a5855c74a1a1c5601a62f5103d4584460405160405180910390a1565b600081519050919050565b600082825260208201905092915050565b6000819050602082019050919050565b600081519050919050565b600082825260208201905092915050565b60005b8381101561079e578082015181840152602081019050610783565b60008484015250505050565b6000601f19601f8301169050919050565b60006107c682610764565b6107d0818561076f565b93506107e0818560208601610780565b6107e9816107aa565b840191505092915050565b600061080083836107bb565b905092915050565b6000602082019050919050565b600061082082610738565b61082a8185610743565b93508360208202850161083c85610754565b8060005b85811015610878578484038952815161085985826107f4565b945061086483610808565b925060208a01995050600181019050610840565b50829750879550505050505092915050565b600060208201905081810360008301526108a48184610815565b905092915050565b6000604051905090565b600080fd5b600080fd5b600080fd5b600080fd5b7f4e487b7100000000000000000000000000000000000000000000000000000000600052604160045260246000fd5b610902826107aa565b810181811067ffffffffffffffff82111715610921576109206108ca565b5b80604052505050565b60006109346108ac565b905061094082826108f9565b919050565b600067ffffffffffffffff8211156109605761095f6108ca565b5b610969826107aa565b9050602081019050919050565b82818337600083830152505050565b600061099861099384610945565b61092a565b9050828152602081018484840111156109b4576109b36108c5565b5b6109bf848285610976565b509392505050565b600082601f8301126109dc576109db6108c0565b5b81356109ec848260208601610985565b91505092915050565b600060208284031215610a0b57610a0a6108b6565b5b600082013567ffffffffffffffff811115610a2957610a286108bb565b5b610a35848285016109c7565b91505092915050565b60008115159050919050565b610a5381610a3e565b82525050565b6000602082019050610a6e6000830184610a4a565b92915050565b600081519050919050565b600082825260208201905092915050565b6000819050602082019050919050565b610aa981610a3e565b82525050565b6000610abb8383610aa0565b60208301905092915050565b6000602082019050919050565b6000610adf82610a74565b610ae98185610a7f565b9350610af483610a90565b8060005b83811015610b25578151610b0c8882610aaf565b9750610b1783610ac7565b925050600181019050610af8565b5085935050505092915050565b60006040820190508181036000830152610b4c8185610815565b90508181036020830152610b608184610ad4565b90509392505050565b7f4e487b7100000000000000000000000000000000000000000000000000000000600052602260045260246000fd5b60006002820490506001821680610bb057607f821691505b602082108103610bc357610bc2610b69565b5b50919050565b600081905092915050565b6000610bdf82610764565b610be98185610bc9565b9350610bf9818560208601610780565b80840191505092915050565b6000610c118284610bd4565b915081905092915050565b7f4e487b7100000000000000000000000000000000000000000000000000000000600052603260045260246000fd5b60008190508160005260206000209050919050565b60008154610c6d81610b98565b610c778186610bc9565b94506001821660008114610c925760018114610ca757610cda565b60ff1983168652811515820286019350610cda565b610cb085610c4b565b60005b83811015610cd257815481890152600182019150602081019050610cb3565b838801955050505b50505092915050565b6000610cef8284610c60565b915081905092915050565b7f4e487b7100000000000000000000000000000000000000000000000000000000600052601160045260246000fd5b6000819050919050565b6000610d3e82610d29565b91507fffffffffffffffffffffffffffffffffffffffffffffffffffffffffffffffff8203610d7057610d6f610cfa565b5b600182019050919050565b600082825260208201905092915050565b7f5461736b20646f6573206e6f7420657869737400000000000000000000000000600082015250565b6000610dc2601383610d7b565b9150610dcd82610d8c565b602082019050919050565b60006020820190508181036000830152610df181610db5565b9050919050565b6000610e0382610764565b610e0d8185610d7b565b9350610e1d818560208601610780565b610e26816107aa565b840191505092915050565b60006020820190508181036000830152610e4b8184610df8565b90509291505056fea26469706673582212201b1de5658a905dad2bc6ebd57c80c9b90271eca1e43a7672a8ae499016bcf1e064736f6c63430008140033",
  "linkReferences": {},
  "deployedLinkReferences": {}
}